:020000041A00E0
:1000000000800010ED11001A7901001A7B01001A1E
:100010007D01001A7F01001A8101001AA266FF53B8
:10002000000000000000000000000000312B001A5A
:100030008501001A00000000D12B001A352C001A8F
:10004000052E001ABB01001ABB01001A00000000B7
:10005000BB01001ABB01001ABB01001ABB01001A48
:100060006947001ABB01001ABB01001ABB01001A44
:100070009943001AD943001A1944001A5D44001A22
:10008000BB01001ABB01001ABB01001ABB01001A18
:10009000BB01001ABB01001ABB01001ABB01001A08
:1000A000BD01001ABB01001AB341001ABD41001A7C
:1000B000BB01001ABB01001ABB01001ABB01001AE8
:1000C000DD56001AE756001AF156001ABB01001A55
:1000D000BB01001ABB01001ABB01001ABB01001AC8
:1000E000BB01001ABB01001ABB01001ABB01001AB8
:1000F00000000000BB01001ABB01001ABB01001A7E
:1001000000000000BB01001ABB01001ABB01001A6D
:10011000BB01001AA0C2001A00000010840A0000EF
:10012000A0C2001A0000081000000000A0C2001ABF
:100130000000002000000000A0C2001A0080002083
:1001400000000000A0C2001A00C000200000000053
:10015000880A0010342E0000000008100000000083
:1001600000000020000000000080002000000000CF
:1001700000C0002000000000FEE7FEE7FEE7FEE70B
:10018000FEE7FEE7FEE7FEE7FEE7002393420AD222
:1001900010B450F8044B41F8044B04339342F8D3A5
:1001A0005DF8044B7047704700238B4204D2002255
:1001B00040F8042B0433F8E77047FEE708B5002049
:1001C00003F014FF08BDFFFFFFFFFFFFFFFFFFFF6E
:1001D000FFFFFFFFFFFFFFFFFFFFFFFFFFFFFFFF2F
:1001E000FFFFFFFFFFFFFFFFFFFFFFFFFFFFFFFF1F
:1001F000FFFFFFFFFFFFFFFFFFFFFFFFFFFFFFFF0F
:10020000FFFFFFFFFFFFFFFFFFFFFFFFFFFFFFFFFE
:10021000FFFFFFFFFFFFFFFFFFFFFFFFFFFFFFFFEE
:10022000FFFFFFFFFFFFFFFFFFFFFFFFFFFFFFFFDE
:10023000FFFFFFFFFFFFFFFFFFFFFFFFFFFFFFFFCE
:10024000FFFFFFFFFFFFFFFFFFFFFFFFFFFFFFFFBE
:10025000FFFFFFFFFFFFFFFFFFFFFFFFFFFFFFFFAE
:10026000FFFFFFFFFFFFFFFFFFFFFFFFFFFFFFFF9E
:10027000FFFFFFFFFFFFFFFFFFFFFFFFFFFFFFFF8E
:10028000FFFFFFFFFFFFFFFFFFFFFFFFFFFFFFFF7E
:10029000FFFFFFFFFFFFFFFFFFFFFFFFFFFFFFFF6E
:1002A000FFFFFFFFFFFFFFFFFFFFFFFFFFFFFFFF5E
:1002B000FFFFFFFFFFFFFFFFFFFFFFFFFFFFFFFF4E
:1002C000FFFFFFFFFFFFFFFFFFFFFFFFFFFFFFFF3E
:1002D000FFFFFFFFFFFFFFFFFFFFFFFFFFFFFFFF2E
:1002E000FFFFFFFFFFFFFFFFFFFFFFFFFFFFFFFF1E
:1002F000FFFFFFFFFFFFFFFFFFFFFFFFFFFFFFFF0E
:1003000010B5044611B1012915D010BD50B1012C12
:10031000FBD10021022004F0B3F90121032004F0F5
:10032000AFF9F2E70021032004F0AAF9012102202D
:1003300004F0A6F9EBE750B1012CE6D1002104202E
:1003400004F09EF90121062004F09AF9DDE700216E
:10035000062004F095F90121042004F091F9EBE75F
:1003600008B50121022004F0B5F80121032004F0B2
:10037000B1F80121042004F0ADF80121062004F0B9
:10038000A9F80021022004F07BF90021032004F0E9
:1003900077F90021042004F073F90021062004F00D
:1003A0006FF90021084603F063FF0221002003F0EB
:1003B0005FFF0221012003F05BFF0021084603F0EC
:1003C0001DFF0021012003F019FF084B00221A70C5
:1003D0007F2159801A715A710120987119819A727E
:1003E000DA72034806F002FF08BD00BFD4370010E0
:1003F000C4B8001A70B504460D4611B101294FD09A
:1004000070BD002808DC002C26DB002CF8D1002170
:10041000084603F0F3FEF3E70020FFF771FF2646DE
:10042000474B19788C4203DC464B1B789C420ADA16
:100430008E420DDC434B1B789E42E4DA00210846D5
:1004400003F0DCFEDFE7E1B2002003F0D7FEDAE7DD
:10045000002003F0D3FEEDE729460120FFF750FF0F
:100460006442A3B21CB22546354A11788C4203DCA3
:10047000344A127894420ADA8D420DDC314B1B78F3
:100480009D42C2DA0021084603F0B8FEBDE7D9B2AA
:10049000002003F0B3FEB8E7002003F0AFFEEDE765
:1004A000002808DC002C26DB002CA9D1002101202B
:1004B00003F0A4FEA4E70020FFF722FF2646204B0E
:1004C00019788C4203DC1F4B1B789C420ADA8E425F
:1004D0000DDC1C4B1B789E42E4DA0021012003F066
:1004E0008DFEDFE7E1B2012003F088FEDAE70120AC
:1004F00003F084FEEDE729460120FFF701FF644287
:10050000A3B21CB225460E4A11788C4203DC0D4A78
:10051000127894420ADA8D420DDC0A4B1B789D4218
:10052000C2DA0021012003F069FEBDE7D9B2012043
:1005300003F064FEB8E7012003F060FEEDE700BFC2
:10054000000000100100001010B5044611B101298F
:100550000ED010BD012806D0002CFAD103210020B6
:1005600003F086FEF5E70221002003F081FEF3E7A9
:10057000012806D0002CECD10321012003F078FEE5
:10058000E7E70221012003F073FEF3E710B582B024
:1005900001F034FD019009E002F0FEFA124B012255
:1005A00083F83220642101A801F038FE052003F011
:1005B0006FFD0028F6D00C4B002283F8332002F0A8
:1005C000C9FA052003F064FD0028E5D0064C94F834
:1005D00033102144052003F0C5FD94F83330013376
:1005E00084F83330EDE700BFE03700100023312BF3
:1005F00004D82022C2540133DBB2F8E77047FFFF72
:1006000010B582B04FF4E131052003F06DFD0F4CC1
:100610002046FFF7EBFF002384F8323001930122DC
:100620000092B4220A490B4801F063FC012808D06B
:100630004FF0A00383F31188BFF36F8FBFF34F8F89
:10064000FEE7054806F0D2FD02B010BDE03700100D
:10065000F8B8001A8D05001A08B9001A08B501216A
:100660000E2003F037FF01210D2003F033FF00219E
:100670000E2004F005F800210D2004F001F80248D6
:1006800006F0B4FD08BD00BF38B9001A38B50446FD
:100690000D460A4906F028FE28B10949204606F011
:1006A00023FE28B138BD29460E2003F0E9FFF4E708
:1006B00029460D2003F0E4FFF4E700BF6CB9001AEF
:1006C00078B9001A00B583B001F098FC019003E0FE
:1006D000FA2101A801F0A2FD02F03CFA02F05CFA56
:1006E0000C2004F002F80028F2D1194B05221A70F0
:1006F00000210846FFF728FF01210020FFF724FF13
:1007000000216FF06300FFF775FE01216FF06300B9
:10071000FFF770FE00210120FFF716FF01210846B8
:10072000FFF712FF4FF4FA7001F0CAFD00210846EE
:10073000FFF760FE01210020FFF75CFE0021012091
:10074000FFF702FF01210846FFF7FEFEC0E700BFEA
:100750000300001000B583B001F050FC019003E0ED
:10076000FA2101A801F05AFD02F0F4F902F014FA9E
:100770000B2003F0BAFF0028F2D1184B04221A70A4
:1007800000210846FFF7E0FE01210020FFF7DCFE14
:1007900000216420FFF72EFE01216420FFF72AFECE
:1007A00000210120FFF7D0FE01210846FFF7CCFE13
:1007B0004FF4FA7001F084FD00210846FFF71AFE9D
:1007C00001210020FFF716FE00210120FFF7BCFEEB
:1007D00001210846FFF7B8FEC2E700BF0300001082
:1007E00070B582B000210C2003F074FE00210B20B4
:1007F00003F070FE00240194012500952346B422E5
:100800000F49104801F075FB0646019400952346F8
:10081000B4220D490D4801F06CFBAE420AD0A8424B
:1008200008D04FF0A00383F31188BFF36F8FBFF39D
:100830004F8FFEE7064806F0D9FC02B070BD00BF3E
:1008400084B9001AC506001A98B9001A5507001A8B
:10085000ACB9001A70B582B001F0D0FB019003E092
:10086000214601A801F0DAFC02F074F9104B1C6873
:100870004FF47A7606FB04F40E48A0FB0424A40986
:100880005B6806FB03F6A0FB0630850902F084F9DD
:10089000B6F57A7FE4D301212B2003F0F1FE284640
:1008A00001F00EFD00212B2003F0EAFED8E700BF87
:1008B00014380010D34D621070B582B001F09EFB69
:1008C000019003E0214601A801F0A8FC02F042F9E2
:1008D000104B9C684FF47A7606FB04F40E48A0FB9C
:1008E0000424A409DB6806FB03F6A0FB0630850997
:1008F00002F052F9B6F57A7FE4D301212C2003F0FF
:10090000BFFE284601F0DCFC00212C2003F0B8FEDD
:10091000D8E700BF14380010D34D621070B582B014
:1009200000230BE0194A4FF4FA6142F8331002EB4E
:10093000C3024FF47A7151600133DBB2012BF1D95C
:1009400000240194012500952346B4221049114842
:1009500001F0CFFA0646019400952346B4220E49D1
:100960000E4801F0C6FAAE420AD0A84208D04FF0B5
:10097000A00383F31188BFF36F8FBFF34F8FFEE7A0
:10098000074806F033FC02B070BD00BF14380010F9
:10099000E0B9001A5508001AECB9001AB908001A93
:1009A000F8B9001A00B583B001F028FB019002F0FD
:1009B000D1F804F0E1F802F0EFF8C82101A801F045
:1009C0002DFCF4E700B583B0114B187804F0FAFC65
:1009D000002816DB0F4806F009FC002301930122D2
:1009E0000092B4220C490D4801F083FA01280CD082
:1009F0004FF0A00383F31188BFF36F8FBFF34F8FC6
:100A0000FEE7074806F0F2FBFEE703B05DF804FBE3
:100A10000200001064BA001A90BA001AA509001A60
:100A200030BA001A70B582B0044602F093F8082379
:100A300005220221102004F035F8002004F015F8FA
:100A400004F00AF802F0A8F8542323705F236370BF
:100A50004F23A3704B23E3703A202071002363716E
:100A60002022A271E271302121726272A3724325A9
:100A7000A5734D25E573442626746274A074E3744F
:100A80004E2626756675A675E27523766576A1767F
:100A9000E07623776277A277E1772B2684F82060CF
:100AA00084F8213084F82250312584F8235084F8CA
:100AB000240084F8253084F8262084F8272084F840
:100AC000281084F8296084F82A30019301230093C8
:100AD0002346B42209490A4801F00BFA012808D03C
:100AE0004FF0A00383F31188BFF36F8FBFF34F8FD5
:100AF000FEE7044806F07AFB02B070BDA0BA001A07
:100B0000110C001AACBA001A10B5044600210846B0
:100B100003F07AFF204603F0B2FF0021052003F026
:100B200073FFA01D03F0ABFF0121002003F06CFF59
:100B300004F10E0003F0A3FF0121052003F064FF80
:100B400004F1140003F09BFF0021092003F05CFF77
:100B500004F1190003F093FF00210C2003F054FF6F
:100B600004F11D0003F08BFF0121092003F04CFF6D
:100B700004F1220003F083FF01210C2003F044FF65
:100B800004F1260003F07BFF10BDFFFFF0B4541EFC
:100B9000E4B22B238B54002814DB0025954216D297
:100BA0000C4E86FB0036C317C3EBA60303EB83078B
:100BB0007E00801B3030085518B2013CE4B201358C
:100BC000EDB2EBE72D238B54404200B2E5E7F0BCD9
:100BD000704700BF67666666F0B4551EEDB200262A
:100BE000964211D2094B83FB0043C417C4EBA30404
:100BF00004EB84077B00C31A30334B5520B2013D10
:100C0000EDB20136F6B2EBE7F0BC70476766666698
:100C100030B583B0044601F0F1F901900E4D032286
:100C200004F11D01B5F90200FFF7B0FF032204F142
:100C30002601B5F90800FFF7A9FF0322A11DB4F9A9
:100C40000C00FFF7C9FF2046FFF75EFF4FF47A71F3
:100C500001A801F0E3FAE1E7D437001000B583B052
:100C60000346002202700192012200924FF4B472F6
:100C70000849094801F03DF9012808D04FF0A003C8
:100C800083F31188BFF36F8FBFF34F8FFEE703B07D
:100C90005DF804FBE4BB001A5511001A3223032B44
:100CA00005D9C25C352A02D0013BDBB2F7E7022B43
:100CB0000DD95A1ED2B2825C352A01D0002070476D
:100CC000023BDBB2C35C5F2B03D0002070470020E7
:100CD00070470120704730B583B005463223032B9F
:100CE00005D9EA5C352A02D0013BDBB2F7E7022BDB
:100CF00005D95A1ED2B2A85C352809D01346013B4B
:100D0000DCB2082C07D0072C18D0084603B030BD41
:100D1000023BDBB2F3E72346A21E9A4209DC1A1B10
:100D20000332E95C02A8024402F8041C013BDBB276
:100D3000F2E701A805F00AFBC1B2E4E72346621E10
:100D40009A4209DC1A1B0332E95C02A8024402F849
:100D5000041C013BDBB2F2E701A805F0F7FAC1B2CF
:100D6000D3E7FFFF931E222B02D8F0B40E4605E016
:100D700000230B70084670471E46284690FBF2F58C
:100D800002FB1504233433460D4F3C5D03F8014B41
:100D9000002DF1D1002804DB002203F801290A46C6
:100DA00009E02D221A70B31CF6E71878147803F8BE
:100DB000014902F8010B9342F7D80846F0BC70478E
:100DC000F0BB001A0023312B04D82022C254013377
:100DD000DBB2F8E77047FFFF30B591B0044603A8D7
:100DE000FFF7F0FF0C229849204606F0B7FC0028D8
:100DF00038D000250D229549204606F0AFFC00288A
:100E00003DD00C229249204606F0A8FC002843D091
:100E10000D229049204606F0A1FC002849D0062268
:100E20008D49204606F09AFC00284FD006228B49B7
:100E3000204606F093FC002878D0082288492046F6
:100E400006F08CFC002800F0A1800C228549204689
:100E500006F084FC002800F0B280002D00F0EF8046
:100E600011B030BD01218048FFF710FC7F490520FB
:100E700003F094F9744806F0B9F90125BAE70021A6
:100E80007948FFF703FC7A49052003F087F96F489A
:100E900006F0ACF90125B4E701217648FFF7F6FB2F
:100EA0007549052003F07AF9694806F09FF9012594
:100EB000AEE700216F48FFF7E9FB7049052003F01A
:100EC0006DF9644806F092F90125A8E72046FFF77E
:100ED00002FF05468038002100B2FFF78BFA00219F
:100EE0000120FFF731FB0A2202A92846FFF73AFF4B
:100EF00003AD594B93E803000390ADF81010090CB3
:100F00008DF8121002A9284606F0BEF9284606F010
:100F1000B7FB5B4B1B882B522946052003F03EF99B
:100F200002A9584806F000F901257FE72046FFF79F
:100F3000D2FE05468038012100B2FFF75BFA01219D
:100F40000846FFF701FB0A2202A92846FFF70AFF1D
:100F500003AD424B93E803000390ADF81010090C69
:100F60008DF8121002A9284606F08EF9284606F0E0
:100F700087FB434B1B882B522946052003F00EF9B3
:100F800002A9414806F0D0F8012556E7002108469D
:100F9000FFF730FA01210020FFF72CFA0021012091
:100FA000FFF7D2FA01210846FFF7CEFA37490520AC
:100FB00003F0F4F8364806F019F9012545E70C204E
:100FC00003F093FB28B300240C2003F08EFB40BBFE
:100FD0000C2003F08AFB58B30A2201A92046FFF730
:100FE000C1FE03AC2B4B25460FCB07C52B8001A9B7
:100FF000204606F049F9204606F042FB204B1B88AC
:1010000023522146052003F0C9F8204606F0EEF8E9
:1010100026E70B2003F069FB08B90024D4E701247C
:10102000D2E70B2003F061FB0028D1D10224CFE7E7
:101030000B2003F05AFB0028CED10324CCE716483E
:1010400006F0D4F80CE700BFE0BA001A00BB001AA3
:1010500020BB001A40BB001A60BB001A74BB001A08
:1010600088BB001AACBB001A6CB9001AF0BA001A9F
:1010700010BB001A78B9001A30BB001A50BB001A16
:101080003CBB001A68BB001A7CBB001A94BB001A58
:10109000A0BB001ABCBB001ACCBB001A10B58EB0A6
:1010A000294B1B79012B0DD0274B9B7A012B10D09C
:1010B0002A2003F04EFB254B93F83230012B0FD042
:1010C0000EB010BD204B1978B3F90200FFF792F96A
:1010D000EAE71D4B9979B3F90800FFF78BF9E7E7C9
:1010E0002D2003F036FB01A8FFF780FA0023174AF2
:1010F00092F833209A4208D9144AD15C0EAA1A44B5
:1011000002F8341C0133DBB2F1E7104C2046FFF744
:101110006DFA002384F8323001A8FFF7BFFD0128E3
:10112000CED10B4A938901339BB29381B3F57A7F79
:1011300002D3134600229A8101A806F0A1FAC1B297
:1011400001A8FFF749FEBBE7D4370010E0370010D5
:101150002438001030B583B004460E4D0023AB8117
:10116000FFF73EFBFFF77AFAFFF7D8FBFFF7F8F837
:10117000FFF728FC2846FFF755FCFFF741FA00F07F
:101180003DFF01902046FFF789FF642101A801F08F
:1011900045F8F7E72438001008B503F0F3FA0848DB
:1011A00006F024F80748FFF759FD00F0D5FE4FF090
:1011B000A00383F31188BFF36F8FBFF34F8FFEE758
:1011C00038BC001A0300001008B5064806F00EF8F7
:1011D0004FF0A00383F31188BFF36F8FBFF34F8FDE
:1011E000FEE700BF54BC001A7047FFFF10B572B68F
:1011F000194B1A4A1A600433194A1A60002305E091
:10120000184A4FF0FF3142F823100133072BF7D96A
:1012100062B6154B07E003F10C049A685968186828
:10122000FEF7B3FF2346114A9342F4D306E01C466F
:10123000596854F8080BFEF7B7FF23460C4A93424F
:10124000F5D302F057FE05F095FBFFF7CDFFFFF752
:10125000A3FF30BFFDE700BF003105400010DF10E5
:10126000FFF7DF0180E200E01401001A5001001ACC
:101270007801001A70477047092303604FF0FF3070
:101280007047582303604FF0FF307047022904D99C
:10129000092303604FF0FF30704701207047582347
:1012A00003604FF0FF30704702291FD82DE9F0414D
:1012B0001D46174606460024AC4211D201F0A1FE9D
:1012C000B0F1FF3FF8D004F1010838550D2803D0E4
:1012D0000A2801D04446EFE701F093FE404603E0C0
:1012E000132333604FF0FF30BDE8F0811323036018
:1012F0004FF0FF30704702290CD870B51D461646D6
:101300000024AC4204D2305D01F076FE0134F8E7EF
:10131000284670BD132303604FF0FF307047FFFF76
:10132000054B1B6823B1044B1868014419607047D2
:10133000014B024A1A60F6E7880A0010BC38001018
:1013400038B5044610F0070F02D020F00704083427
:1013500000F04CFE134B1B687BB1134B1B681C4405
:1013600041F6F77294420ED8A34210D300F0D8FE93
:101370000025FFF729FF284638BD0C4B23F0070353
:10138000084A1360E9E700F0CBFE0025F1E7054AC3
:1013900015681D44044B1C6000F0C2FE002DEAD10C
:1013A000E7E700BF8C0A0010902A0010980A00108E
:1013B00040B14FF0A00383F31188BFF36F8FBFF3E9
:1013C0004F8FFEE7704710B5044601F0C3FBA26BD8
:1013D000E36B9A4204D0002401F0DEFB204610BDEE
:1013E0000124F9E710B5044601F0B4FBA36B23B95F
:1013F000012401F0D1FB204610BD0024F9E770B5AF
:1014000004461646856B026C5AB903681BB100206E
:101410000135A56370BD406801F0BCF8002363602E
:10142000F6E76EB9806805F089FD226CA368134465
:10143000A3606268934219D32368A3600020E7E7A2
:10144000C06805F07BFD226C5242E3681344E36000
:1014500021688B4202D263681A44E260022E01D0F6
:101460000020D5E725B1013D0020D1E70020CFE7DE
:101470000020CDE7026C72B110B5C3681344C3609D
:101480004468A34201D30368C3600C46C168204688
:1014900005F054FD10BD704738B5054601F05AFB04
:1014A00095F8454064B203E001F05EF8013C64B297
:1014B000002C08DD6B6A33B105F1240000F0C0FF99
:1014C0000028F3D0F0E7FF2385F8453001F064FBF6
:1014D00001F040FB95F8444064B203E001F044F8A9
:1014E000013C64B2002C08DD2B6933B105F110001A
:1014F00000F0A6FF0028F3D0F0E7FF2385F8443082
:1015000001F04AFB38BDFFFF38B5E0B104460D4697
:1015100001F020FB2168E26B236C03FB021060608A
:101520000020A063A160013A02FB0313E360FF23E4
:1015300084F8443084F84530EDB9236963B901F08B
:101540002BFB012038BD4FF0A00383F31188BFF3BC
:101550006F8FBFF34F8FFEE704F1100000F070FFB4
:101560000028ECD0084B4FF080521A60BFF34F8F29
:10157000BFF36F8FE3E704F1100000F074FA04F199
:10158000240000F070FADAE704ED00E038B51D46FB
:10159000049C0B4649B92460E06323640121204682
:1015A000FFF7B2FF84F84C5038BD2260F4E740B931
:1015B0004FF0A00383F31188BFF36F8FBFF34F8FFA
:1015C000FEE710B584B0044653B192B189B94FF02B
:1015D000A00383F31188BFF36F8FBFF34F8FFEE734
:1015E0004FF0A00383F31188BFF36F8FBFF34F8FCA
:1015F000FEE76AB1502003900398502813D04FF0B3
:10160000A00383F31188BFF36F8FBFF34F8FFEE703
:101610000029EFD04FF0A00383F31188BFF36F8F41
:10162000BFF34F8FFEE720461C46012384F8463067
:1016300000949DF81830FFF7A9FF204604B010BDB4
:10164000F0B585B0019278B10446B1B1022B20D13A
:10165000E26B012A1DD04FF0A00383F31188BFF382
:101660006F8FBFF34F8FFEE74FF0A00383F3118816
:10167000BFF36F8FBFF34F8FFEE7026C002AE5D0F8
:101680004FF0A00383F31188BFF36F8FBFF34F8F29
:10169000FEE71E460F4600F06DFF50B9019B53B1A7
:1016A0004FF0A00383F31188BFF36F8FBFF34F8F09
:1016B000FEE700253BE0002539E03246394620466A
:1016C000FFF79DFE636A6BB938B13C4B4FF0805217
:1016D0001A60BFF34F8FBFF36F8F01F05DFA0120E7
:1016E00005B0F0BD04F1240000F0AAFE0028F4D0FB
:1016F000324B4FF080521A60BFF34F8FBFF36F8FA2
:10170000EBE701F049FA0020EAE702A800F0DEFE6C
:10171000012519E0002384F8443021E0002384F8F7
:10172000453023E02046FFF7B7FE00F0F9FC01F05A
:1017300011FAA26BE36B9A42BFD3022EBDD0019B7C
:10174000002BDED0002DE0D001F026FA00F04EFC98
:1017500001F000FA94F844305BB2B3F1FF3FD9D006
:1017600094F845305BB2B3F1FF3FD7D001F014FAE3
:1017700001A902A800F0B6FEC8B92046FFF723FE73
:101780000028CFD0019904F1100000F025FE20467A
:10179000FFF782FE00F0C4FC0028C8D1074B4FF0D1
:1017A00080521A60BFF34F8FBFF36F8FBFE72046A1
:1017B000FFF772FE00F0B4FC002091E704ED00E0BA
:1017C0002DE9F84378B10446B1B1022B20D1E06B8A
:1017D00001281DD04FF0A00383F31188BFF36F8F52
:1017E000BFF34F8FFEE74FF0A00383F31188BFF3E1
:1017F0006F8FBFF34F8FFEE7006C0028E5D04FF0EE
:10180000A00383F31188BFF36F8FBFF34F8FFEE701
:101810001F469046894601F0C7FAEFF311864FF054
:10182000A00383F31188BFF36F8FBFF34F8FA26BB9
:10183000E36B9A4206D3022F04D0002086F311886E
:10184000BDE8F88394F845506DB23A4649462046C3
:10185000FFF7D5FDB5F1FF3F05D06B1C5BB284F8F7
:1018600045300120EAE7636A0BB90120E6E704F19D
:10187000240000F0E5FD30B1B8F1000F05D00120E3
:10188000C8F80000DAE70120D8E70120D6E7FFFF1B
:10189000F0B585B0019280B10446B9B10F4600F0B1
:1018A00069FEF8B9019BFBB14FF0A00383F31188E7
:1018B000BFF36F8FBFF34F8FFEE74FF0A00383F3AB
:1018C0001188BFF36F8FBFF34F8FFEE7036C002BC0
:1018D000E4D04FF0A00383F31188BFF36F8FBFF301
:1018E0004F8FFEE700263EE000263CE039462046CA
:1018F000FFF7C0FD013DA563236923B901F04CF951
:10190000012005B0F0BD04F1100000F099FD0028A1
:10191000F4D0354B4FF080521A60BFF34F8FBFF3B6
:101920006F8FEBE701F038F90020EAE702A800F03A
:10193000CDFD012621E0002384F8443029E0002376
:1019400084F845302BE02046FFF7A6FD00F0E8FBC9
:1019500009E02046FFF7A0FD00F0E2FB2046FFF77C
:1019600041FD00283DD101F0F5F8A56B002DBDD15A
:10197000019B002BD6D0002ED8D001F00DF900F03D
:1019800035FB01F0E7F894F844305BB2B3F1FF3F68
:10199000D1D094F845305BB2B3F1FF3FCFD001F026
:1019A000FBF801A902A800F09DFD0028D1D1204636
:1019B000FFF718FD0028C6D0019904F1240000F0BB
:1019C0000BFD2046FFF768FD00F0AAFB0028CAD1F6
:1019D000054B4FF080521A60BFF34F8FBFF36F8FEC
:1019E000C1E700208DE700BF04ED00E00023072BD6
:1019F0000CD8074A52F833200AB10133F7E7044AFA
:101A000042F8331002EBC30358607047704700BFC1
:101A10005038001070B504460D46164601F09AF88D
:101A200094F844305BB2B3F1FF3F0DD094F84530E9
:101A30005BB2B3F1FF3F0BD001F0AEF8A36B5BB12B
:101A40002046FFF729FD70BD002384F84430EDE700
:101A5000002384F84530EFE73246294604F124009C
:101A600000F0D2FCECE700F1080343604FF0FF32D6
:101A70008260C36003610023036070470023036139
:101A8000704743684B609A688A605160996008614A
:101A9000036801330360704730B40D68B5F1FF3F50
:101AA00002D000F1080202E0026904E01A4653681D
:101AB0001C68AC42FAD953684B6099608A605160E7
:101AC000086103680133036030BC704703694168F3
:101AD00082688A60416851605A68824206D000225A
:101AE00002611A68013A1A601868704782685A6081
:101AF000F5E7FFFF034B0360034B0B605A231360B2
:101B0000704700BF9C310010942A0010034B036003
:101B1000034B0B604FF4B47313607047FC3100103B
:101B2000FC2B001010B582B00C46019000230093EE
:101B300001F010F801992246044805F0F5FA009BDF
:101B4000002BFCD001F028F802B010BDDCBC001A5C
:101B500008B5044805F0E8FA03495020FFF7E2FF12
:101B600008BD00BFACBC001A8CBC001A084B1B6837
:101B70001B6823B9074B4FF0FF321A607047044BC4
:101B80001B68DB68DB685A68024B1A60704700BF4D
:101B900060320010343300102DE9F04781460D46C5
:101BA00017469A46089EDDF824800A9C9200A521DB
:101BB000206B05F05DFA236B07F18042013A03EBDD
:101BC000820727F00707676400230F2B06D8EA5C1B
:101BD000E11881F834200AB10133F6E7002384F8D4
:101BE0004330062E00D90626E66226650025656587
:101BF000201DFFF743FF04F11800FFF73FFF2461AA
:101C0000C6F10706A6616462A56584F85C50524679
:101C10004946384600F070FF2060B8F1000F01D04F
:101C2000C8F80040BDE8F08738B50024062C08D875
:101C300004EB840293000E481844FFF714FF0134AC
:101C4000F4E70C4D2846FFF70EFF0B4C2046FFF73C
:101C50000AFF0A48FFF707FF0948FFF704FF094892
:101C6000FFF701FF084B1D60084B1C6038BD00BF2B
:101C7000683200100C330010203300103C33001089
:101C800068330010543300106032001064320010CA
:101C900010B5044600F05EFF214A1368013313605B
:101CA000204B1B685BB1204B1B686BB91D4B1B683D
:101CB000DA6AE36A9A4207D81A4B1C6004E0194BAF
:101CC0001C601368012B27D0184A13680133136076
:101CD000A364E36A01229A401549086802430A6036
:101CE00003EB83039A00211D12481044FFF7C9FE3D
:101CF00000F052FF0C4B1B686BB10A4B1B68DA6A91
:101D0000E36A9A4207D20C4B4FF080521A60BFF33D
:101D10004F8FBFF36F8F10BDFFF786FFD4E700BF73
:101D2000F43200105C320010503300100433001005
:101D3000083300106832001004ED00E010B50446CE
:101D400090F85D3063B1012B11D0022B0ED04FF013
:101D5000A00383F31188BFF36F8FBFF34F8FFEE7AC
:101D6000006BFFF725FB2046FFF722FB10BDFFF7B6
:101D70001FFBFBE70F4B1B68D3B110B500F0EAFE69
:101D80000D4BDB68DC68201DFFF7A0FE0B4A1368D3
:101D9000013B1360074A1368013B136000F0FCFE2F
:101DA0002046FFF7CBFF034B1B68002BE6D110BD8D
:101DB000704700BFF832001068330010F432001092
:101DC00008B5FFF7D7FF064B1B68012BF9D9054B68
:101DD0004FF080521A60BFF34F8FBFF36F8FF0E761
:101DE0006832001004ED00E070B504460E461D4B4D
:101DF0001D681D4B18680430FFF768FE50B91A4B78
:101E00001B68DA6A012303FA02F218490B6823EA15
:101E100002030B60B4F1FF3F0DD02C44124B1B6842
:101E20005C60A54210D9124B18680F4B1968043139
:101E3000FFF732FE70BD002EEFD00B4B1968043156
:101E40000C48FFF71EFEF5E70B4B1868064B1968A8
:101E50000431FFF721FE094B1B68A342EAD9074B67
:101E60001C60E7E77C3300105C3200100833001080
:101E7000643200105433001060320010343300100C
:101E800070B586B00B9D0C9C75B1B4B160260496FC
:101E9000049E602E1AD04FF0A00383F31188BFF385
:101EA0006F8FBFF34F8FFEE74FF0A00383F31188CE
:101EB000BFF36F8FBFF34F8FFEE74FF0A00383F3A5
:101EC0001188BFF36F8FBFF34F8FFEE725630225A5
:101ED00084F85D5000250395029405AD01950A9D97
:101EE0000095FFF759FE2046FFF7D2FE059806B091
:101EF00070BD2DE9F04385B00746884615469946E2
:101F00009000FFF71DFAF8B106466020FFF718FAB7
:101F10000446A8B10663E4B1002384F85D3003935E
:101F200002940D9B01930C9B00934B462A4641461D
:101F30003846FFF731FE2046FFF7AAFE012005E0F4
:101F40003046FFF735FAE6E74FF0FF3005B0BDE861
:101F5000F0834FF0FF30F9E710B588B00024059406
:101F6000069407AA06A905A8FFF7C4FD059B0293DE
:101F7000069B019300942346079A17491748FFF7D9
:101F80007FFF40B100F0CCFB012806D0B0F1FF3F4D
:101F900018D008B010BD0020F6E74FF0A00383F37F
:101FA0001188BFF36F8FBFF34F8F0D4B4FF0FF3290
:101FB0001A600C4B01221A600B4B00221A6000F0D1
:101FC0006BFEE6E74FF0A00383F31188BFF36F8F3A
:101FD000BFF34F8FFEE700BF1CBD001AC11D001AE2
:101FE00034330010503300107C330010024A136861
:101FF00001331360704700BF00330010014B1868B5
:10200000704700BF7C330010F8B53A4B1B68002BBB
:1020100064D1394B1D6801351D60C5B9374B1B684C
:102020001B6843B14FF0A00383F31188BFF36F8F98
:10203000BFF34F8FFEE7314A1168314B18681060CB
:102040001960304A136801331360FFF78FFD2E4B80
:102050001B68AB4238D900242C4B1B68DB6A03EBAE
:1020600083039A002A4B9B58012B3CD901243AE068
:102070000124224B1B681B6843B3204B1B68DB68A1
:10208000DE6873689D4226D3371D3846FFF71EFD74
:10209000B36A1BB106F11800FFF718FDF36A0122BD
:1020A0009A401C49086802430A6003EB83039A00C4
:1020B000394617481044FFF7E4FCF26A134B1B68DB
:1020C000DB6A9A42D4D2D4E70024D2E70E4B4FF019
:1020D000FF321A60C0E70C4A1360BDE70E4A13686E
:1020E0000133136000240D4B1B6803B1012420460B
:1020F000F8BD00BF003300107C33001060320010C8
:102100006432001038330010343300105C32001099
:102110006832001008330010FC32001080330010C9
:1021200038B5354B1B6843B94FF0A00383F31188D2
:10213000BFF36F8FBFF34F8FFEE700F00BFD2E4B09
:102140001A68013A1A601B68002B4DD12B4B1B6893
:102150000BB9002449E00024294B1B681BB3284B12
:10216000DB68DC6804F11800FFF7B0FC251D284689
:10217000FFF7ACFCE36A01229A4022490868024357
:102180000A6003EB83039A0029461F481044FFF7B7
:1021900078FCE26A1D4B1B68DB6A9A42DCD31C4B5D
:1021A00001221A60D8E70CB1FFF7E0FC194B1C685C
:1021B00074B9174B1B68E3B1174B4FF080521A608C
:1021C000BFF34F8FBFF36F8F01240EE0013C07D0A8
:1021D000FFF71AFF0028F9D00D4B01221A60F5E72E
:1021E0000C4B00221A60E4E7002400F0D5FC2046E6
:1021F00038BD0024F9E700BF00330010F4320010AE
:102200003C33001008330010683200105C320010BC
:1022100080330010FC32001004ED00E038B550B1FE
:10222000054689B94FF0A00383F31188BFF36F8F80
:10223000BFF34F8FFEE74FF0A00383F31188BFF386
:102240006F8FBFF34F8FFEE71A4B1B6843B14FF000
:10225000A00383F31188BFF36F8FBFF34F8FFEE7A7
:102260000C46FFF7C3FE144B18682A6814448242D8
:1022700009D9A24201D82C600EE0A04201D32C6003
:102280000AE02C6004E0A24201D8A04210D22C60E7
:102290000021201AFFF7A8FDFFF742FF38B9074BCE
:1022A0004FF080521A60BFF34F8FBFF36F8F38BD6E
:1022B0002C60F1E7003300107C33001004ED00E0E7
:1022C00010B5A8B104460F4B1B6843B14FF0A003F3
:1022D00083F31188BFF36F8FBFF34F8FFEE7FFF7D4
:1022E00085FE00212046FFF77FFDFFF719FF38B973
:1022F000054B4FF080521A60BFF34F8FBFF36F8FC3
:1023000010BD00BF0033001004ED00E02D4B1B6832
:102310001BB12D4B01221A60704710B52A4B0022C9
:102320001A602A4B1B681B6B1A68B2F1A53F03D1D8
:102330005A68B2F1A53F1BD0244B18681968343194
:10234000FFF706FC224B1B68B3FA83F3DBB2C3F141
:102350001F0303EB83018A001E498A588AB94FF094
:10236000A00383F31188BFF36F8FBFF34F8FFEE796
:102370009A68B2F1A53FDFD1DB68B3F1A53FDBD1AD
:10238000E0E714489A00D418A10001444C6864683E
:102390004C601A44910008310844844209D003EB90
:1023A00083039A000B4B13445B68DA68074B1A608F
:1023B00010BD606803EB83029100064A0A44506036
:1023C000EDE700BF00330010803300105C320010D6
:1023D000083300106832001058B110B50C46094B94
:1023E00019681831FFF758FB01212046FFF7FCFC64
:1023F00010BD4FF0A00383F31188BFF36F8FBFF3BD
:102400004F8FFEE75C32001038B570B10C461546B0
:102410000A4A11681831FFF734FB0DB14FF0FF3451
:1024200029462046FFF7E0FC38BD4FF0A00383F3B8
:102430001188BFF36F8FBFF34F8FFEE75C32001040
:1024400038B5C368DC6824B304F118052846FFF7E3
:102450003DFB184B1B682BBB251D2846FFF736FBA1
:10246000E36A01229A401449086802430A6003EBB8
:1024700083039A00294611481044FFF702FBE26AE1
:102480000F4B1B68DB6A9A4211D901200D4B186073
:102490000EE04FF0A00383F31188BFF36F8FBFF3FB
:1024A0004F8FFEE729460848FFF7EBFAE7E70020E1
:1024B00038BD00BF00330010083300106832001030
:1024C0005C320010803300103C330010034B1B685B
:1024D0000360034B1B684360704700BF3833001034
:1024E0007C330010F8B5C8B1054601B30C4600F0C6
:1024F00031FB1B4B19686B68C81A2268B2F1FF3FA9
:1025000026D02F68174E3668B74201D08B4224D9A7
:10251000824215D80023236001241AE04FF0A00363
:1025200083F31188BFF36F8FBFF34F8FFEE74FF038
:10253000A00383F31188BFF36F8FBFF34F8FFEE7C4
:102540005B1A134423602846FFF7C0FF002400E015
:10255000002400F021FB2046F8BD0124F9E700BF6C
:102560007C33001038330010014B01221A60704791
:1025700080330010054B1B6833B1054B1B680BB152
:102580000020704702207047012070475033001030
:102590000033001000284CD038B50446274A126892
:1025A000824208D04FF0A00383F31188BFF36F8FEE
:1025B000BFF34F8FFEE7426D42B94FF0A00383F3A4
:1025C0001188BFF36F8FBFF34F8FFEE7013A42656B
:1025D000C06A216D88422ED00AB1002038BD251D69
:1025E0002846FFF773FA70B9E26A02EB82018B00AA
:1025F0001349CB583BB9012303FA02F211490B6886
:1026000023EA02030B60236DE362C3F10702A261B8
:10261000012404FA03F20B49086802430A6003EB41
:1026200083039A00294606481044FFF72AFA2046F9
:10263000D4E7002070470020D0E700BF5C320010D4
:102640006832001008330010064B1A681368B3FA9A
:1026500083F35B09036013B9D368186870470020DF
:10266000704700BF8433001008B54160006191429B
:102670000CD8D21A83699A4201D3012008BD011DEA
:10268000094B1868FFF708FA0020F7E79A4201D2D1
:10269000994206D2011D054B1868FFF7FDF900208D
:1026A000ECE70120EAE700BF883300108433001014
:1026B00030B583B000F04EFA114B1B681BB100F02F
:1026C0006BFA03B030BD0F4D2846FFF7CCF90E4C26
:1026D0002046FFF7C8F90D4B1D600D4B1C60002311
:1026E00000930C4B0C4A10210A20FEF760FF044BAC
:1026F00018600028E3D00949FFF778F9DFE700BF49
:10270000A83400102C340010403400108433001022
:1027100088330010583400108C33001024BD001A88
:1027200010B588B0FFF7C4FF124B1B68CBB1002473
:102730000594069407AA06A905A8FFF7E7F9059BE3
:102740000293069B0193042300932346079A0A49A8
:102750000A48FFF795FB0A4B186010B1012008B03A
:1027600010BD4FF0A00383F31188BFF36F8FBFF349
:102770004F8FFEE7A83400102CBD001A652A001AFE
:10278000AC340010C0B130B585B015460446174AC8
:10279000106840B31A4600910195029405291CDC8B
:1027A000FFF7E8FE022810D000231A4669460F48BA
:1027B0000068FEF745FF14E04FF0A00383F3118893
:1027C000BFF36F8FBFF34F8FFEE70023089A694670
:1027D00006480068FEF734FF03E000236946FEF771
:1027E000EFFF05B030BD0020FBE700BFA8340010AC
:1027F00070B582B01A4B1B681A6852B3DB681E684A
:10280000DC68251D2846FFF761F9636A2046984772
:10281000E369012BEED1A36933449E4207D2636082
:10282000246129460E4B1868FFF736F9E2E70021CC
:1028300000910B4632462046FFF7A4FF0028D9D16D
:102840004FF0A00383F31188BFF36F8FBFF34F8F57
:10285000FEE7044A106802490860136002B070BDC8
:10286000843300108833001038B50546FFF7C6FBE7
:102870000446074B1B68834205D800232B60044B9A
:102880001C60204638BDFFF7B3FF01232B60F6E73D
:102890005434001070B582B005460E46144B1B68C8
:1028A000DB68DC68201DFFF711F9E369012B04D018
:1028B000636A2046984702B070BDA1692B46324634
:1028C00029442046FFF7D0FE0028F1D000210091D6
:1028D0000B462A462046FFF755FF0028E8D14FF067
:1028E000A00383F31188BFF36F8FBFF34F8FFEE711
:1028F0008433001070B582B006460C46FFF776FBB5
:1029000001A8FFF7B1FF019B1BBB05460CB9B04204
:1029100018D22CB1114B1B681C68B4FA84F46409FA
:102920002246711B0E4B1868FFF774F8FFF7F8FB8F
:1029300088B90C4B4FF080521A60BFF34F8FBFF332
:102940006F8F08E0FFF7ECFB29463046FFF7A2FF48
:1029500001E0FFF7E5FB02B070BD00BF8833001057
:10296000A834001004ED00E030B589B006E0079906
:102970000698059B9847049B002B0BDA002204A9BC
:10298000374B1868FEF784FF002866D0049B002BA5
:10299000F1DAECE7069C636913B1201DFFF796F8A6
:1029A00003A8FFF761FF049B092BE7D801A252F8A7
:1029B00023F000BFDD29001ADD29001ADD29001AE5
:1029C0007D29001A252A001A4B2A001ADD29001A2F
:1029D000DD29001A7D29001A252A001A0599A56902
:1029E0000B46024629442046FFF73EFE0028C5D08C
:1029F000636A20469847E369012BBFD1A269002191
:102A000000910B46059802442046FFF7BBFE0028C4
:102A1000B4D14FF0A00383F31188BFF36F8FBFF3DE
:102A20004F8FFEE70599A16131B10346024601448B
:102A30002046FFF719FEA1E74FF0A00383F31188AA
:102A4000BFF36F8FBFF34F8FFEE794F82C30002B4E
:102A500094D12046FEF7ACFC90E709B030BD00BF32
:102A6000A834001000B583B001A8FFF7EDFD01996F
:102A7000FFF740FFFFF778FFF6E7FFFF82B0002384
:102A800001930D4B1B68B3F1FF3F08D04FF0A0033B
:102A900083F31188BFF36F8FBFF34F8FFEE74FF0C3
:102AA000A00383F31188BFF36F8FBFF34F8F019B98
:102AB000002BFCD002B070470400001008480068EA
:102AC000006880F308884FF0000080F3148862B635
:102AD00061B6BFF34F8FBFF36F8F00DF00BF000001
:102AE00008ED00E0DFF80C00016841F470010160BE
:102AF0007047000088ED00E04FF0807340F8043C20
:102B000021F0010140F8081C054B40F80C3C40F84E
:102B1000202C6FF0020340F8243C4438704700BF7B
:102B20007D2A001AFFFFFFFFFFFFFFFFFFFFFFFFF0
:102B3000074B19680868B0E8F04F80F30988BFF3C5
:102B40006F8F4FF0000080F311887047AFF3008063
:102B50005C3200104FF0A00383F31188BFF36F8F36
:102B6000BFF34F8F0A4A136801331360012B00D063
:102B70007047084B1B6813F0FF0FF9D04FF0A0030C
:102B800083F31188BFF36F8FBFF34F8FFEE700BF52
:102B90000400001004ED00E0094B1B6843B94FF03E
:102BA000A00383F31188BFF36F8FBFF34F8FFEE74E
:102BB000013B034A13600BB983F31188704700BFD0
:102BC00004000010FFFFFFFFFFFFFFFFFFFFFFFFFD
:102BD000EFF30980BFF36F8F154B1A681EF0100FCB
:102BE00008BF20ED108A20E9F04F10602DE90900A0
:102BF0004FF0A00080F31188BFF34F8FBFF36F8FAA
:102C0000FFF784FB4FF0000080F3118809BC1968BE
:102C10000868B0E8F04F1EF0100F08BFB0EC108A43
:102C200080F30988BFF36F8F704700BFAFF3008058
:102C30005C32001008B54FF0A00383F31188BFF396
:102C40006F8FBFF34F8FFFF7DFF918B1034B4FF0D2
:102C500080521A60002383F3118808BD04ED00E060
:102C6000084A0023136008490B60084B1B68084999
:102C7000A1FB03139B09013B06490B60072313606B
:102C8000704700BF10E000E018E000E0903800104E
:102C9000D34D621014E000E03A4B1A683A4B9A4266
:102CA00029D0384B1A68394B9A422DD010B582B0D2
:102CB000374B1A78D2B20192FF221A701B78DBB21E
:102CC0008DF803309DF8033003F0A003314A1370F0
:102CD000314B07221A609DF8033013F0800F1CD08F
:102CE0002D4A1368013B13609DF803305B00DBB293
:102CF0008DF80330EFE74FF0A00383F31188BFF3A3
:102D00006F8FBFF34F8FFEE74FF0A00383F311885F
:102D1000BFF36F8FBFF34F8FFEE71F4B1B68042B72
:102D200008D04FF0A00383F31188BFF36F8FBFF378
:102D30004F8FFEE71B0203F4E063174A1360019B09
:102D4000DBB2134A1370154B1A6842F460021A6022
:102D50001A6842F060421A60FFF782FF0024104BAD
:102D60001C60FFF7BFFE0F4A136843F04043136037
:102D7000FFF7A4FEFFF7CAFAFFF780FE204602B075
:102D800010BD00BF00ED00E071C20F4170C20F41E5
:102D900000E400E0B0340010B434001020ED00E096
:102DA0000400001034EF00E0EFF305830F2B0FD980
:102DB000104A9B5CDBB2104A12789A4208D94FF055
:102DC000A00383F31188BFF36F8FBFF34F8FFEE72C
:102DD0000A4B1B6803F4E063094A1268934208D95E
:102DE0004FF0A00383F31188BFF36F8FBFF34F8FB2
:102DF000FEE77047F0E300E0B03400100CED00E0B7
:102E0000B434001008B5054B0122C3F88021044BEF
:102E10001B6813B1024B1B68984708BD00E100E036
:102E2000B83400100022052A19D870B40C4911F8E2
:102E3000125001EB42014C780A4B05F5006653F83D
:102E400026100120A040014343F8261003EB451350
:102E5000002119550132052AE8D970BC7047704726
:102E600040BD001A00400F400023032B16D830B499
:102E70000B4911F8132001EB43014D78094C02F581
:102E8000006254F822100120A84021EA000144F811
:102E900022100133032BEBD930BC7047704700BFC1
:102EA00038BD001A00400F400023082B16D830B45C
:102EB0000B4911F8132001EB43014D78094C02F541
:102EC000006254F822100120A84021EA000144F8D1
:102ED00022100133082BEBD930BC7047704700BF7C
:102EE0004CBD001A00400F4010B582B0084C694636
:102EF000204600F0FFFA074A6946204600F01AFB18
:102F000000226946204600F02EFB02B010BD00BF33
:102F100000300E40801A060010B50B4C204600F021
:102F2000CDFF636823F004036360236823F0FF038D
:102F300043F0070323600549204600F0A0FF6368C3
:102F400043F00203636010BD00500C40A0860100F6
:102F500008B5002000F056F9044B40F60802C3F80B
:102F6000842C0349002000F05FF908BD0060084090
:102F700040420F0010B5074C204600F0DFF94FF437
:102F8000E131204600F024FA0323E3600123E365E6
:102F900010BD00BF00100C40034B5B6913F0200F05
:102FA000FAD0014B1860704700100C40054B5B696C
:102FB00013F0010F03D0034B1868C0B270474FF0F5
:102FC000FF30704700100C4008B5FFF7D3FF0948E9
:102FD00000F035FFFFF768FFFFF786FFFFF79CFF64
:102FE000FFF7B6FFFFF71EFFFFF73EFF00F0C2FA44
:102FF00008BD00BF00400F4008B5C0B2FFF7CCFFCE
:1030000008BD08B5FFF7D2FF08BD08B5FFF7B2FF4E
:1030100008BDFFFF00231C2B12D810B4094A02EB95
:10302000830112F823404A78488802EB441206498B
:1030300041F8220001331C2BF0D95DF8044B704796
:10304000704700BF68BD001A0060084010B5174AFD
:10305000D2F8203123F4704343F41043C2F82031F6
:10306000D2F8243123F4704343F41043C2F82431DE
:1030700001220F49062000F095FD00244CB10B4BB6
:103080005A6822F00C025A605A6842F003025A60F1
:1030900010BD084800EB840101238A78497810F8B4
:1030A000240000F093FC0134E8E700BF0030044046
:1030B00000CB280C64BD001A08B5FFF7ABFFFFF783
:1030C000C5FF08BD012909D1C0EBC0008200044B37
:1030D00013441A69137DDBB2042BFBD0704700BF89
:1030E0000800001030B4436803F0F803582B7FD871
:1030F000DFE803F07A7E7E7E7E7E7E7E2F7E7E7E81
:103100007E7E7E7E2F7E7E7E7E7E7E7E397E7E7E73
:103110007E7E7E7E6E7E7E7E7E7E7E7E397E7E7E24
:103120007E7E7E7E727E7E7E7E7E7E7E767E7E7ED3
:103130007E7E7E7E6C7E7E7E7E7E7E7E6E7E7E7ED1
:103140007E7E7E7E2D7E7E7E7E7E7E7E4F003C233A
:1031500020E00A788B68B3FA83F35B0943EA420301
:1031600083603C2323E08B684BB90B6923B16FF07C
:10317000200303F03C031AE06FF01003F9E74B68FB
:103180005A1C4A601B7883608B68013B8B603C2330
:103190000DE02C238468CA68551CCD6014700A6940
:1031A000013A0A610A69012A01DD23F0040383F070
:1031B0003C02026023F01002826113F0100F19D05C
:1031C0000B7D022B16D0012030BC70473C23E9E771
:1031D00005230B752C23EAE701230B752C23E6E767
:1031E00002230B753C23E2E703230B752C23DEE758
:1031F0003C23DCE70B7D042B01D00020E4E7002317
:103200000B75FAE770B50546064EC400221A930006
:103210003344988800F03EFC641BA300F3586C22F2
:103220009A6170BD080000102DE9F0410C460B4E6C
:10323000C5002B1A4FEA830806EB0803988800F0B4
:1032400043FCB0FBF4F056F8083042081A6156F817
:1032500008301A69801A5861BDE8F0810800001032
:10326000C0EBC0039A00094B13441B6953B1C0EB78
:10327000C0008200054B13449868884214BF0020A8
:1032800001207047014B13449960F0E708000010DB
:1032900010B504460948E3001B1B9A0083181969FE
:1032A0008058FFF71FFF40B9C4EBC4039A00034BDB
:1032B00013449B6802212046984710BD0800001067
:1032C000C0EBC0008300034AD3581868C0F3C000A5
:1032D000704700BF08000010012915D138B5044619
:1032E000C0EBC0039A00094B13441D692B7DDBB270
:1032F000042B08D12046FFF7E3FF0028F6D0204634
:10330000FFF7C6FFF2E738BD704700BF08000010A6
:10331000094B984209D003F58053984207D0A3F592
:103320008023984205D00020704702207047032078
:1033300070470120704700BF00100C4030B583B0CB
:103340000446FFF7E5FF01231A4619460E4D35F8EE
:10335000100000F081FB0723A3600023E365636096
:10336000E3602362E36463652365084B9C4206D0F7
:103370000323E3601023A362019B03B030BD00234D
:103380002361A3690193F3E7E4BD001A002008401C
:1033900038B505460C46FFF7BBFF0C4B33F8100061
:1033A00000F092FB2301B0FBF3F3D9B2EA6842F0DC
:1033B0008002EA602960C3F307226A60EA6822F0AB
:1033C0008002EA60B0FBF3F0000938BDDCBD001AF2
:1033D0002DE9F04F83B001908846FFF799FF324BFB
:1033E00033F8100000F070FB06464FF0FF37012461
:1033F0004FF0000BA246D9462AE042424B1C17E090
:103400000AB31746AB46A24699460135AC421ED9CF
:1034100033093007A4FB000104FB0311621908FB08
:1034200002F2002302F010FE02460B460028E4DB05
:103430009742EAD3002BE8D0190CE6D1022BDFD853
:10344000002DDDD0E1E71746AB46A2469946013490
:103450001FB10F2C01D80025D8E7B9F1000F1ED0FD
:10346000019A1146D36843F08003D3605FFA89F371
:103470001360C9F307235360D36823F08003D3603C
:103480004FEA0A13DBB20BF00F0213438B623309CE
:103490000AFB03F3DA4409FB0AF9B3FBF9F94846DE
:1034A00003B0BDE8F08F00BFDCBD001A034B9842AB
:1034B00001D0032070470420704700BF00400E4039
:1034C00070B50D4614461E46FFF7F0FF00F0FCFAFB
:1034D00055B104FB06F404EB40006400B0FBF4F0CB
:1034E000C0B20138C0B270BD04EB840304EB4304E6
:1034F000F1E7FFFF38B505460C46FFF7D7FF01237C
:103500001A46194600F0A8FA0021E960084A22602C
:10351000217161710B232846FFF7D2FF000240F4AE
:1035200000132079400400F460201843286038BD5F
:10353000801A060070B505460E46046824F46F2410
:1035400024F470640A600B79C3F10B03DBB2497990
:10355000FFF7B6FF44EA002033795B0403F46023ED
:1035600003432B6070BD08B50A710A68FFF7E2FFDC
:1035700008BDFFFF08B5692000F0A6FA014B1860EE
:1035800008BD00BF90380010F0B40B6813F0800F36
:1035900002D023F040030B60074601253AE04B6957
:1035A00003FB02F3B3FBF5F31CE01C46B0EB040C89
:1035B00027D4674506D98D60771CCF600A618C617E
:1035C000CB6167460132B2F5807F1DDC0C6814F0D8
:1035D000400FE4D0731C02FA03FC4B6903FB0CF3AD
:1035E000B3FBF5F3DFF838C06345EBD9DFF834C03F
:1035F000634509D814F0800FD7D1741C23FA04F462
:10360000D4E7CCF1000CD4E70136032E01DC012213
:10361000D9E70135042D01DC0026F6E7F0BC704740
:10362000FF5E4C0900D01213F0B599B005460C4668
:103630005C22002101A803F01BFD80230093636935
:10364000059323798DF8043069462846FFF79CFFDF
:10365000069BAB4227D0EB1A2ED41E46109B23F0BC
:10366000400310936369159323798DF8443010A9B2
:103670002846FFF789FF169BAB421FD0EB1A25D4D3
:103680001F462B4B9D4223D90E9BED1A33D4AE42DD
:103690003BDCBE4231DC6D460FCD0FC495E80F0018
:1036A00084E80F0006E06D460FCD0FC495E80F00CB
:1036B00084E80F0019B0F0BD5B42CEE710AD0FCD2E
:1036C0000FC495E80F0084E80F00F3E75B42D7E7EB
:1036D0004023089363690D9308A92846FFF754FF18
:1036E0000E9BAB42D0D108AD0FCD0FC495E80F00B3
:1036F00084E80F00DEE76D42C9E710AD0FCD0FC4BF
:1037000095E80F0084E80F00D4E7AF4207DB08AD6F
:103710000FCD0FC495E80F0084E80F00CAE710AD85
:103720000FCD0FC495E80F0084E80F00C2E700BF7B
:1037300080778E0630B4054600231C2000E001335C
:103740001C2818D103EB430251000C4A0A44147997
:10375000844210D003EB43014A0008498A5AAA4226
:10376000EDD803EB43025100044A0A445288AA42AE
:10377000E5D32046E4E730BC704700BFF8BD001A2F
:1037800082B04FF47A7301930D4A936923F00201DA
:1037900092698A4201D00A4A916123F00303094ADF
:1037A0001168094A914201D943F00403044A936124
:1037B000019B5A1E0192002BFAD102B0704700BF44
:1037C0000000054060BD001AFF2C31011230054B8E
:1037D00053F8200010F0010F02D1C0F304607047CD
:1037E000112070470000054000F11202034B53F80E
:1037F0002220034B185C00EA92007047000005404D
:10380000F0BD001A08B510280AD8DFE800F0440B14
:103810000D18210924272A2D09093034383C40008D
:1038200000203AE01E4838E01E4BD3F82C3103F05C
:103830000703042B01D01C482FE000202DE0194B7A
:10384000D3F82C3103F00703042B27D0164824E0CB
:10385000164B186821E0164B18681EE0154B1868C7
:103860001BE0144B586818E000F068F815E00021E0
:1038700000F09AF811E0012100F096F80DE0022125
:1038800000F092F809E0032100F08EF805E0042131
:1038900000F08AF801E04FF4004008BD0648FCE75C
:1038A000001BB7000030044040787D0134BD001A91
:1038B00060BD001ABC34001080F0FA0238B505462D
:1038C0000C460879FFF79EFF6061194B2B44194A9B
:1038D000934221D818B3802323600023A360E360C0
:1038E000B5FBF0F32361144A954203D903FB00F0C2
:1038F000A84207D021462846FFF796FEA3688BB161
:10390000013BA360236983B1E2680AB1013AE26036
:10391000013B2361002038BD4FF0FF30FBE74FF043
:10392000FF30F8E74FF0FF30F5E74FF0FF30F2E7F8
:10393000103A6BFF1005940BFF5E4C0930B583B055
:10394000174D6C6CC4F30360FFF75CFF154B1B68ED
:1039500001932B6C13F0010F20D0C4F30743C4F381
:103960000132C4F30121C4F38015013301320DF19A
:10397000080C614411F8041C14F0800F08D13DB903
:103980004900B3FBF1F3B0FBF2F000FB03F003E0FE
:10399000B0FBF2F003FB00F003B030BD0020FBE70A
:1039A00000000540ECBD001A38B50C460846FFF78C
:1039B0000DFF05462046FFF717FF04462846FFF790
:1039C00021FF0134B0FBF4F038BDFFFF30B400F14B
:1039D0001604A40004F1804404F5A02464681B28A4
:1039E00013D811291AD00E4D25400AB145F40065AF
:1039F0000BB145F0010545EA01651630800000F184
:103A0000804000F5A020456008E044F00104163035
:103A1000800000F1804000F5A020446030BC704779
:103A2000FEF7FFE01B280CD81630800000F1804024
:103A300000F5A020406810F0010F04D1C0F304602D
:103A40007047112070471120704708B5FFF7EAFF53
:103A5000FFF7D8FE08BDFFFF71B901210AB141F09F
:103A60000401022B0AD0B0F5A17F0AD3A0F5917012
:103A7000064B43F8301070470321EFE741F0200177
:103A8000F1E72030024B43F830107047002005402A
:103A900000100540B0F5A17F09D3094AA0F5917047
:103AA00052F8303043F0010342F830307047054A95
:103AB000203052F8303043F0010342F83030704784
:103AC000002005400010054010B5B0F5A17F09D3D6
:103AD000A0F591730D4A52F8334014F0010F07D14D
:103AE000002010BD00F12003094A52F83340F4E7EA
:103AF000FFF720FEFFF7A9FF14F0E00F03D1012329
:103B0000B0FBF3F0EDE70223FAE700BF0020054029
:103B10000010054030B441F4805501F1600300EB22
:103B2000C3046560012440F8334002F1A00340F86B
:103B3000334004FA01F100EBC3035960816DA240E8
:103B400003239340DB43194094400C438465426D4A
:103B50001340436530BC704738B504460D466D20B0
:103B6000FFF7B2FFB0FBF5F0636843F00413636046
:103B7000636843F0081363600023A4F84C30A4F892
:103B80004E30C4F80031C4F800024FF48053C4F83A
:103B900004330123C4F80033238103F50033236089
:103BA00038BDFFFF70B58AB005460E4614464CF28C
:103BB00050330993062818D00023012229460420F7
:103BC000FFF704FF4A4A536C43F0010353648DF836
:103BD000085001A93046FFF771FE464B9E4216D9A8
:103BE000019B13F0400F03D0FEE7FFF7C9FDE3E7A9
:103BF00013F0800F05D023F08003019300250126E8
:103C000007E0049B013304930125002601E0002511
:103C10002E469DF80820019B43EA0263059A43EA79
:103C20000243039A43EA0233049A43EA022343F429
:103C300000632F4A53642E4B1B6C13F0010FFAD014
:103C40000023012209210420FFF7C0FE06B34CF235
:103C500050330993099B5A1E0992002BFAD1019BFC
:103C600043F0800301939DF8082043EA0263059A1C
:103C700043EA0243039A43EA0233049A43EA0223E3
:103C800043F400631A4A5364002C2ED10AB070BD6D
:103C9000002DF9D04CF250330993099B5A1E09921A
:103CA000002BFAD1049B5A1E04929DF80810019B28
:103CB00043EA0163059943EA0143039943EA013367
:103CC00043EA022343F40063094A5364DCE70A48E9
:103CD00000EB8401CB788A78497810F82400FFF74C
:103CE00075FE0134112CF2D9D0E70024FAE700BFA9
:103CF0000000054080778E0664BE001A10B4436849
:103D000003F0F803302B4CD008D9482B6CD034D9B1
:103D1000582B58D0F82B3ED100202BE0102B16D07A
:103D20000ED9202B3DD0282B01D0182B35D18B88D4
:103D3000002B3ED1CB88002B5ED14B802C230FE093
:103D40001BB903234B802C230AE0082B25D10A78CA
:103D50008B88B3FA83F35B0943EA420383603C2315
:103D600083F03C02026003F02C0383614888FF3833
:103D700018BF01205DF8044B7047382B38D0402B1A
:103D80000BD1CA88012A27D93823002AE8D14A80D2
:103D900023F01003E4E7502B15D001234B802C2394
:103DA000DEE74B7813F0010FC1D102234B802C23A7
:103DB000D6E78B685A1C8A601B7883608B88013B2E
:103DC0008B803C23CCE78268CB685C1CCC601A708B
:103DD000CB88013BCB80D4E74B7813F0020F01D1A5
:103DE0003C23D2E73823D0E704234B802C23B7E7CA
:103DF00005234B803C23B3E71C23B1E7FF234B8013
:103E00002C23836160230360704738B504460D4658
:103E1000FFF7F4FF002003E029462046FFF76EFF7E
:103E200020B9236813F0080FFBD0F5E738BD08B5BB
:103E300001231A4619466D20FFF70EFE08BD704794
:103E4000034B984201D083207047A520704700BFE4
:103E500000500C40044B984202D040F202207047C0
:103E60004FF4F170704700BF00500C40036823F41A
:103E70007F43090289B2194301600261704770B53E
:103E800006460D46FFF7E6FFFFF71EFE02224FF043
:103E9000FF33002100E02146AB420BD94C1C02FB52
:103EA00004F3B0FBF3F39D42F6D2FF2CF3D90232B8
:103EB0000021F1E73046FFF7D9FF70BD10B5044689
:103EC000FFF7BEFFFFF7E6FD2046FFF7C3FFFFF752
:103ED000E1FD636823F004036360236823F0FF03BC
:103EE00043F00703236002492046FFF7C8FF10BDD7
:103EF000A086010008B50B4A0B4B9A6003F50C73C2
:103F00001B6903F47F63202B04D0FFF7D5F8FFF77C
:103F10005BF808BD044AD2F8883043F47003C2F855
:103F20008830F2E70000001A00ED00E0044B186052
:103F3000044A136843F0010313600120704700BF77
:103F400040000010001000E010B504464FF0804023
:103F5000FFF76DFF21464FF08040FFF7FDFD4FF06A
:103F60008042536823F00413536010BD4FF0804328
:103F7000D3F8003203FB00F0024BA3FB0030C00972
:103F8000704700BF8180808010B50130C4B2084600
:103F9000FFF7ECFF80344FF0804343F8240010BD5E
:103FA00010B504460F4A12F91030DBB202EB4002A2
:103FB00092F901205B0153FA82F30B4A112142F876
:103FC0002310411C0246C9B24FF08040FFF7A2FD0A
:103FD0004FF08043D3F8003200212046FFF7D4FF92
:103FE00010BD00BFACBE001A0060084070B50446AA
:103FF00000EB400293001F4AD6587569EDB215F0E8
:10400000010F09D020B91C4B1B680BB10020984749
:10401000032C13D0052C18D015F0200F0DD0736889
:1040200013F0020F09D024B9144B1B680BB1002008
:104030009847032C10D0052C15D070BD104B1B6871
:10404000002BE7D000209847E4E70E4B1B68002BBD
:10405000E2D000209847DFE70B4B1B68002BEAD02B
:1040600000209847E7E7094B1B68002BE5D00020AC
:104070009847E2E7C8BE001AC4340010D0340010DC
:10408000C8340010CC340010D4340010D8340010E0
:1040900000EB40008300034AD358586900F0010048
:1040A000704700BFC8BE001A00EB40008300034AFF
:1040B000D358586900F02000704700BFC8BE001AEE
:1040C00000EB40008300024AD3581868C0B2704722
:1040D000C8BE001A00EB40008300024AD3581960A2
:1040E000704700BFC8BE001A2DE9F84380468946D4
:1040F000194C45002A189300E618E7583846FFF790
:104100001DF949463846FFF743F90723BB603B6872
:104110000123FB6530797379B27942F018020F49B7
:1041200003EB401341F82320F079337A727A42F09E
:10413000D00203EB401341F82320B8F1010F01D066
:10414000BDE8F883064AD36C43F03003D3641A22E7
:10415000C1F80823F4E700BFC8BE001A0060084099
:104160000010084038B505460C46FFF791FF03469E
:1041700008B9184638BD2846FFF7A2FF2070012372
:10418000F7E738B504460D462046FFF78DFF0028B7
:10419000FAD029462046FFF79DFF38BD38B50546C1
:1041A0000C46217821B12846FFF7EBFF0134F8E7F0
:1041B00038BD08B50320FFF719FF08BD08B5052075
:1041C000FFF714FF08BD08B54FF47A70FFF7BCFE87
:1041D00008BDFFFF00230A2B06D8074AD25C8242A3
:1041E00002D00133DBB2F6E70A2B02D8581CC0B26A
:1041F00070470020704700BF4400001038B50446E7
:104200000D46FFF7E7FF08B9002038BD2946034BEC
:10421000185DFFF7B9FE0120F7E700BF10BF001AD5
:1042200010B50446FFF7D6FF70B9FF20FFF7D2FFA5
:1042300008B9002009E0431E044AD454044B185D19
:10424000FFF7AEFE012000E0002010BD440000108A
:1042500010BF001A08B5FFF7BDFF28B1431E034A7F
:10426000FF21D154012000E0002008BD44000010CF
:1042700008B5022908D0032909D009B1002008BDDA
:10428000FFF7A1FF0120FAE7FFF7CAFFF7E7FFF703
:10429000E1FFF4E738B504460D46084B40F6080246
:1042A000C3F8842CFEF7AEFF29462046FEF7BCFF7C
:1042B00003492046FEF7D4FF012038BD00600840C6
:1042C000D932001A00B585B08DF8001000218DF8A4
:1042D0000110ADF802100292ADF80430079B039371
:1042E000BDF82030ADF8063069460548FFF78DFD72
:1042F00018B1012005B05DF804FB0020FAE700BF0B
:1043000000100A4008B10020704700B585B08DF854
:10431000001000218DF80110ADF802100292ADF8E6
:1043200004300391ADF8061069460548FFF76DFDAE
:1043300018B1012005B05DF804FB0020FAE700BFCA
:1043400000100A4008B10020704708B5FFF7A2FF2F
:1043500008BD08B10020704710B584B09DF8244016
:104360000394BDF820400294079C01949DF81840E6
:104370000094FFF7A7FF04B010BD08B100207047FC
:1043800010B582B09DF810400094FFF7BBFF02B05B
:1043900010BDFEE77047FFFF38B5002401E001348F
:1043A000E4B2032C12D865B2094B1A6804F00F016D
:1043B00001238B401A42F2D0064B53F824300020E0
:1043C00098470123AB40024A1360E8E738BD00BFBD
:1043D000004008405000001038B5002401E00134CE
:1043E000E4B2032C13D865B2094B1A6804F00F012C
:1043F00001238B401A42F2D0231D064A52F8233083
:10440000002098470123AB40014A1360E7E738BD1D
:10441000005008405000001038B5002401E001347D
:10442000E4B2032C14D865B20A4B1A6804F00F01E9
:1044300001238B401A42F2D004F10803064A52F8D5
:104440002330002098470123AB40024A1360E6E77F
:1044500038BD00BF00300C405000001038B50024BB
:1044600001E00134E4B2032C14D865B20A4B1A6897
:1044700004F00F0101238B401A42F2D004F10C0327
:10448000064A52F82330002098470123AB40024AE5
:104490001360E6E738BD00BF00400C40500000103C
:1044A00030B40B4D00EB80002C182856087094F99E
:1044B0000110117094F902201A7094F90320029BE4
:1044C0001A7094F90420039B1A7030BC704700BF27
:1044D0001CBF001A10F1020F00F0C780B0F1FF3FBF
:1044E00000F0C58070B584B00C4600238DF80F3005
:1044F0008DF80E308DF80D308DF80C308DF80B30B6
:104500000DF10B03019303AB00930DF10D030DF1BE
:104510000E020DF10F01FFF7C3FF052C00F2A98079
:10452000DFE804F00981274563035348FFF787FC60
:10453000012004B070BD9DF80F109DF80E309DF85D
:104540000D2042F0D00203EB41134C4941F82320E7
:104550009DF80C309DF90B20012000FA02F1464C29
:1045600003F5006354F8232022EA010244F82320D3
:10457000DFE79DF80F109DF80E309DF80D2042F0FA
:10458000C00203EB41133D4941F823209DF80C3054
:104590009DF90B20012000FA02F1374C03F500636E
:1045A00054F8232022EA010244F82320C1E79DF8B1
:1045B0000F109DF80E309DF80D2042F0D80203EB4D
:1045C00041132E4941F823209DF80C309DF90B2012
:1045D000012000FA02F1284C03F5006354F823206F
:1045E00022EA010244F82320A3E79DF80F109DF86A
:1045F0000E309DF80D2042F0C80203EB41131F4915
:1046000041F823209DF80C309DF90B20012000FA81
:1046100002F1194C03F5006354F8232022EA010249
:1046200044F8232085E79DF80F109DF80E309DF883
:104630000D2042F0D00203EB4113104941F8232032
:104640009DF80C409DF90B20012000FA02F10A4B65
:1046500004F5006553F82560314343F82510D2B2C4
:1046600003EB44130021995463E7002070470020B6
:10467000704700205DE700BF00400F400060084029
:1046800010F1020F2DD0B0F1FF3F2CD010B584B047
:104690000C4600238DF80F308DF80E308DF80D305C
:1046A0008DF80C308DF80B300DF10B03019303AB3B
:1046B00000930DF10D030DF10E020DF10F01FFF747
:1046C000EFFE9DF80C309DF80B20211C18BF012136
:1046D0005B0103F1402303F570239954012004B0DA
:1046E00010BD002070470020704710F1020F2CD041
:1046F000B0F1FF3F2BD000B585B000238DF80F300F
:104700008DF80E308DF80D308DF80C308DF80B30A3
:104710000DF10B03019303AB00930DF10D030DF1AC
:104720000E020DF10F01FFF7BBFE9DF90C309DF855
:104730000B205B0103F1402303F57023985C0030EC
:1047400018BF012005B05DF804FB01207047002070
:10475000704710B50446FFF7C8FFB0FA80F1490969
:104760002046FFF78DFF10BD08B5044B1B681B6882
:10477000DB68034A1068984708BD00BF94380010F2
:10478000DC34001008B5FEF7F5FE184B1868FFF78B
:10479000CDFB05210020FFF79DFE00212420FFF71F
:1047A00099FE00212520FFF795FE00212620FFF726
:1047B00091FE00212720FFF78DFE01212820FFF721
:1047C00089FE01212920FFF785FE01212A20FFF71C
:1047D00081FE01212B20FFF77DFE01212C20FFF718
:1047E00079FE01212D20FFF775FE08BD90380010DD
:1047F000F0B484B04FEA810C83004CEA90721B182D
:1048000041EB0202110241EA13611802C61A61EB80
:1048100002073B0143EA1673320116461F46CDE9F3
:104820000067DDE90023CDE90223DDE9022313431C
:1048300008D0DDE9022312F1FF3443F1FF35CDE961
:104840000245F2E704B0F0BC704730B585B00318FC
:1048500041EB0102181842EB01010B0143EA10730E
:104860000201801843EB01018B0043EA9073820040
:10487000104619460A22002301F0E6FBCDE90001AB
:10488000DDE90023CDE90223DDE90223134308D04B
:10489000DDE9022312F1FF3443F1FF35CDE9024592
:1048A000F2E705B030BDFFFF00B585B0094B1870C9
:1048B000094B1B7818438DF80F00012300930DF16D
:1048C0000F02064909780020FFF757FD05B05DF893
:1048D00004FB00BFEB340010EA340010900000101D
:1048E00008B5084B1B7839B1012202FA00F00343E6
:1048F000D8B2FFF7D9FF08BD012101FA00F023EA81
:104900000000F6E7EB34001008B5FFF7E9FF08BD3B
:1049100010B5044600F080010720FFF7F5FF04F012
:1049200040010620FFF7F0FF04F020010520FFF70B
:10493000EBFF04F010010420FFF7E6FF10BD08B5FF
:1049400001210220FFF7E0FF19200021FFF77DFF82
:1049500000210220FFF7D8FF08BDFFFF00B585B09A
:104960008DF80F00064B1870012300930DF10F0214
:10497000044909780020FFF700FD05B05DF804FB4D
:10498000EA3400109000001008B5044B19700020A4
:10499000FFF7E4FF0020FFF787FF08BD900000103D
:1049A00010B5044600F0F000FFF7B2FF0021084602
:1049B000FFF7AAFF00210120FFF7A6FFFFF7BFFFC7
:1049C00019200021FFF741FF200100F0F000FFF760
:1049D0009FFFFFF7B4FF10BD10B5044600F0F000D4
:1049E000FFF796FF01210020FFF78EFF0021012035
:1049F000FFF78AFFFFF7A3FF200100F0F000FFF7A9
:104A000087FFFFF79CFF10BD82B2114B1B889A42B3
:104A100004D28BB20E4A5288934200D3704730B50D
:104A200083B00D4604460B4B1B68019302AB0B444D
:104A300013F8040C2044C0B2FFF7B2FF6420002139
:104A4000FFF703FF024B1C725D7203B030BD00BF65
:104A5000E034001004C0001A08B50120FFF7A0FFE1
:104A600003200021FFF7C4FE08BD08B540F00C008C
:104A7000FFF796FF03200021FFF7BAFE08BD38B507
:104A800005460024285D20B1FFF7A6FF0134E4B2FB
:104A9000F8E738BD08B5FFF7DFFF00210846FFF74C
:104AA000B3FF08BD38B5254D28806980AA80EB800A
:104AB00000242C726C7227212046FFF765FF01212C
:104AC0000320FFF721FF21460120FFF71DFF2146AC
:104AD0002046FFF719FF21460220FFF715FF33207C
:104AE000FFF75EFF2D200021FFF7AFFE3220FFF71A
:104AF00057FF2D200021FFF7A8FE2820FFF750FFC9
:104B00002D200021FFF7A1FE0E20FFF749FF2D20E9
:104B10000021FFF79AFEFFF79FFF0620FFF740FFF7
:104B20002D200021FFF791FE01200021FFF760FEFC
:104B30002046FFF79AFFFFF7ADFF38BDE0340010C5
:104B400000B587B08DF817000A4A12F8240B01232C
:104B500003930291019200930DF117020146002088
:104B6000FFF7F7FB18B1012007B05DF804FB4FF029
:104B7000FF30F9E7F03400102DE9F04F83B0152134
:104B80003B20FFF7DDFF002800F036819B4B93F8B8
:104B900024B093F8251041EA0B210FFA81FBA3F80A
:104BA0002CB193F8262093F8271041EA022109B28C
:104BB000A3F82E1193F8280093F8292042EA002246
:104BC00012B2A3F8302193F82A4093F82B0040EA60
:104BD000042000B205EE900AA3F83E0193F82C5091
:104BE00093F82D6046EA052636B2A3F8326193F8B1
:104BF0002E4093F82F0040EA042000B2A3F83401BD
:104C000093F8304093F8315045EA04252DB2A3F8CB
:104C1000365193F8337093F8324044EA072424B2B3
:104C200006EE904AA3F8384193F8357093F8344073
:104C300044EA072424B207EE104AA3F83A4193F855
:104C4000377093F8364044EA072424B207EE904ABE
:104C5000A3F83C41B3F940A1B3F9427101FB07F459
:104C60000BFB0A4CB3F94441019402FB04CC06EE61
:104C700010CAB8EEC66A93ED015A26EE056AD3ED66
:104C8000304A36EE646AD3ED334A26EE246A83ED69
:104C90000F6AB3F946E1B3F9488108FB01FC0EFB4A
:104CA0000BCCB3F94A4104FB02CC06EE10CAB8EEB5
:104CB000C66A25EE066AD3ED314A36EE646AD3ED54
:104CC000344A26EE246A83ED106AB3F94CC1B3F975
:104CD0004E9109FB01F10CFB0B11B3F950B10BFB29
:104CE000021106EE101AB8EEC66A25EE065A93EDCA
:104CF000326A35EE465A93ED356A25EE065A83ED53
:104D0000115A00FB07F706FB0A77019A05FB0272AE
:104D100006EE102AB8EEC66A93ED025A26EE056A30
:104D2000D3ED204A36EE646A83ED126A00FB08F880
:104D300006FB0E8E05FB04E206EE102AB8EEC66AEC
:104D400025EE066AD3ED214A36EE646A83ED136AD6
:104D500000FB09F006FB0C0005FB0B0506EE105AE4
:104D6000B8EEC66A25EE065A93ED226A35EE465A2B
:104D700083ED145AF8EEE66A93ED036A66EE866AEE
:104D800093ED446A76EEC66A93ED476A66EE866AEC
:104D9000C3ED156AB8EEC77AD3ED046A27EE267A1A
:104DA000D3ED456A37EE667AD3ED486A27EE267A68
:104DB00083ED167AF8EEE77A93ED057A67EE877A57
:104DC00093ED467A77EEC77A93ED497A67EE877A64
:104DD000C3ED177AF8EEE55AD3ED077A75EEE75A88
:104DE000D3ED066A85EEA67A77EE877AC3ED187A58
:104DF000012003B0BDE8F08F0020FAE7F034001086
:104E00001B4B1C4A9A611C4ADA61642283F86420B5
:104E10004FF07E52C3F8CC20C3F8D020C3F8D42082
:104E20004FF47A71A3F8D8101449C3F8DC100821A4
:104E300083F8E010C3F81C21C3F82021C3F8242113
:104E40000022A3F840210121A3F84211A3F8442134
:104E5000A3F84611A3F84821A3F84A21A3F84C214E
:104E6000A3F84E214FF6FF72A3F85021704700BF00
:104E7000483600105CEFA6430000A8419A99993E7D
:104E800000B587B08DF817000A4A12F8240B0123E9
:104E900003930291019200930DF117020146002045
:104EA000FFF757FA18B1012007B05DF804FB4FF087
:104EB000FF30F9E74836001008B501217520FFF7EB
:104EC000DFFF002803DB034B93F9240008BD4FF0FC
:104ED000FF30FBE748360010F0B585B006460C46BB
:104EE0008DF80C008DF80D100C4D01270097022352
:104EF00003AA29780020FFF740FA0A20FDF7E0F91D
:104F000039463046FFF7BCFF95F82430A34203D062
:104F10004FF0FF3005B0F0BD3846FBE748360010D3
:104F200038B505460C468C212520FFF7D5FF002813
:104F300017DB29462620FFF7CFFF002814DB44F0BB
:104F400080012720FFF7C8FF002810DB0120FDF7B4
:104F5000B7F921464920FFF793FF064B83F852012A
:104F600038BD4FF0FF30FBE76FF00100F8E76FF05E
:104F70000200F5E74836001008B501210020FFF7D0
:104F8000CFFF002803DB034B93F9240008BD4FF04B
:104F9000FF30FBE74836001038B504460D460C21BB
:104FA0002520FFF799FF00281EDB21462620FFF76A
:104FB00093FF00281BDB29466320FFF78DFF0028A5
:104FC00018DB81212720FFF787FF002815DB01214F
:104FD0002046FFF7A5FF002812DB0C4B93F8243086
:104FE000AB4210D1012038BD4FF0FF30FBE76FF02E
:104FF0000100F8E76FF00200F5E76FF00300F2E759
:105000006FF00400EFE76FF00500ECE748360010A2
:1050100010B5044603280CD8DFE800F002101A246B
:1050200000211B20FFF758FF002825DB184B194AE9
:105030009A60174B83F82140012010BD08211B20E6
:10504000FFF74AFF00281ADB114B134A9A60F0E77A
:1050500010211B20FFF740FF002813DB0C4B0F4AE9
:105060009A60E6E718211B20FFF736FF00280CDBCB
:10507000074B0B4A9A60DCE74FF0FF30DDE74FF05B
:10508000FF30DAE74FF0FF30D7E74FF0FF30D4E7DB
:1050900048360010E4A00B39E4A08B39E4A00B3AA9
:1050A000E4A08B3A10B50446052810D8DFE800F0DC
:1050B00003142332415001211D20FFF70DFF00286A
:1050C00055DB01211A20FFF707FF002852DB324B86
:1050D00083F82240012010BD02211D20FFF7FCFEB5
:1050E00000284ADB02211A20FFF7F6FE0028EEDA3C
:1050F0006FF00100EFE703211D20FFF7EDFE002810
:105100003EDB03211A20FFF7E7FE0028DFDA6FF00D
:105110000100E0E704211D20FFF7DEFE002832DB5E
:1051200004211A20FFF7D8FE0028D0DA6FF0010022
:10513000D1E705211D20FFF7CFFE002826DB052142
:105140001A20FFF7C9FE0028C1DA6FF00100C2E79C
:1051500006211D20FFF7C0FE00281ADB06211A20B9
:10516000FFF7BAFE0028B2DA6FF00100B3E74FF0A4
:10517000FF30B0E76FF00100ADE74FF0FF30AAE776
:105180004FF0FF30A7E74FF0FF30A4E74FF0FF30BC
:10519000A1E74FF0FF309EE74836001010B50446F7
:1051A00013211920FFF798FE002839DB092C20D99C
:1051B00000210A20FFF7F0FE002834DB6420FDF711
:1051C0007FF812210A20FFF7E7FE00282EDB64207B
:1051D000FDF776F807210320FFF7A2FE21461920EC
:1051E000FFF77AFE00282ADB164B83F823400120C4
:1051F00010BD00210A20FFF7CFFE002819DB642034
:10520000FDF75EF816210A20FFF7C6FE002813DB23
:105210006420FDF755F807210320FFF781FEDDE745
:105220004FF0FF30E4E76FF00100E1E76FF00200BC
:10523000DEE76FF00100DBE76FF00200D8E76FF008
:105240000300D5E748360010014B93ED120A704772
:1052500048360010014B93ED130A70474836001092
:10526000014B93ED140A70474836001038B52DED08
:10527000028B0020FFF7CCFE0028C0F28F800320B5
:10528000FFF710FF0028C0F28C801320FFF786FF85
:105290000028C0F289804A4B00200021C3E91A018E
:1052A000C3E91C01C3E91E010025454B93F8643096
:1052B000AB424AD9FFF760FCFFF7C6FF404CD4ED84
:1052C000207A30EE270A94F8643008EE103AB8EEEF
:1052D000C88AC0EE087A17EE900A00F073FB024607
:1052E0000B46D4E91A0100F00FFAC4E91A01FFF7DE
:1052F000B1FFD4ED217A30EE270AC0EE087A17EE1E
:10530000900A00F05FFB02460B46D4E91C0100F056
:10531000FBF9C4E91C01FFF7A3FFD4ED227A30EEBC
:10532000270AC0EE087A17EE900A00F04BFB0246FF
:105330000B46D4E91E0100F0E7F9C4E91E01142070
:10534000FCF7BEFF0135EDB2AFE71D4CD4E91A0101
:1053500000F02AFEC4F88000D4E91C0100F024FE0D
:10536000C4F88400D4E91E0100F01EFEC4F88800D1
:1053700094F82100FFF74CFE002818DB94F8220077
:10538000FFF790FE002815DB94F82300FFF706FFD7
:10539000002812DB0120BDEC028B38BD4FF0FF303E
:1053A000F9E76FF00100F6E76FF00200F3E76FF046
:1053B0000300F0E76FF00400EDE76FF00500EAE7A7
:1053C0004836001010B50446FFF71AFDA04B1C70BC
:1053D000A0490020FEF7B6FF01216B20FFF77CFDFE
:1053E0000028C0F2F88020216A20FFF775FD002810
:1053F000C0F2F4800D212420FFF76EFD0028C0F2DA
:10540000F08000210A20FFF7C7FD80216B20FFF705
:1054100063FD0120FCF754FF01210B20FFF7BCFDC9
:1054200001216B20FFF758FD0028C0F2DD80FFF757
:1054300043FD712804D0FFF73FFD732840F0D7806B
:1054400000216C20FFF748FD0028C0F2D38018210E
:105450001C20FFF741FD0028C0F2CF807C4B7E4A24
:105460005A60032283F8202018211B20FFF734FD07
:105470000028C0F2C580764B784A9A60032283F8F0
:10548000212001211D20FFF727FD0028C0F2BB804D
:1054900001211A20FFF720FD0028C0F2B78000216B
:1054A0006B4B83F822101920FFF716FD0028C0F27D
:1054B000B080674B002283F8232020216A20FFF769
:1054C0000BFD0028C0F2A8800D212420FFF704FD69
:1054D0000028C0F2A480FFF74FFD482840F0A280CA
:1054E00000210A20FFF758FD0028C0F29E806420AA
:1054F000FCF7E6FE0F210A20FFF74EFD0028C0F260
:1055000097806420FCF7DCFE03211020FFF708FDE4
:105510004F4B93F8242007EE102AB8EE477ADFEDC0
:10552000504A37EE647A9FED4F5A27EE057AF7EE30
:10553000005A37EE257A9FED4C6A27EE067ADFEDAA
:105540004B6AC7EE267AC3ED037A93F8252007EE5F
:10555000102AB8EE477A37EE647A27EE057A37EEEE
:10556000257A27EE067AC7EE267AC3ED047A93F8F9
:10557000262007EE902AF8EE677A77EEE47A67EE57
:10558000857A77EEA57A67EE867A87EEA67A83ED3E
:10559000057A00210A20FFF7FFFC00284BDB64207E
:1055A000FCF78EFE16210A20FFF7F6FC002845DBEB
:1055B0006420FCF785FE01216B20FFF78DFC00289D
:1055C0003FDB07210320FFF7ABFCFFF74FFE00286E
:1055D0003ADB012010BD4FF0FF30FBE76FF0010018
:1055E000F8E76FF00200F5E76FF00300F2E76FF005
:1055F0000400EFE76FF00500ECE76FF00600E9E765
:105600006FF00700E6E76FF00800E3E76FF00900CE
:10561000E0E76FF00A00DDE76FF00B00DAE76FF00C
:105620000C00D7E76FF00D00D4E76FF00E00D1E764
:105630006FF00F00CEE76FF01000CBE76FF01100B6
:10564000C8E76FF01200C5E76FF01300C2E700BFB4
:1056500048360010801A060016EA9C3BE4A08B3AFC
:10566000000000430000803B0080994500F0FF46A9
:10567000012303FA00F0014B5862704700700840A4
:10568000F8B5124B1A5C124BD969012383400B42C7
:105690000CD010498C6802EB4202D1000E4A0A4439
:1056A00054600B4AD361FFF7E3FFF8BD09498E68E8
:1056B000094D51008F18FC0027462C44A6606468F1
:1056C000361B3D44EE60024A1362ECE708C0001A44
:1056D00000700840004008409400001008B5002009
:1056E000FFF7CEFF08BD08B50120FFF7C9FF08BDD1
:1056F00008B50220FFF7C4FF08BDFFFF81F000419D
:1057000002E000BF83F0004330B54FEA41044FEAA6
:10571000430594EA050F08BF90EA020F1FBF54EA41
:10572000000C55EA020C7FEA645C7FEA655C00F0DD
:10573000E2804FEA5454D4EB5555B8BF6D420CDDAE
:105740002C4480EA020281EA030382EA000083EA31
:10575000010180EA020281EA0303362D88BF30BDD1
:1057600011F0004F4FEA01314FF4801C4CEA113127
:1057700002D0404261EB410113F0004F4FEA033386
:105780004CEA133302D0524263EB430394EA050F11
:1057900000F0A780A4F10104D5F1200E0DDB02FA80
:1057A0000EFC22FA05F2801841F1000103FA0EF214
:1057B000801843FA05F359410EE0A5F120050EF1DA
:1057C000200E012A03FA0EFC28BF4CF0020C43FA0B
:1057D00005F3C01851EBE37101F0004507D54FF018
:1057E000000EDCF1000C7EEB00006EEB0101B1F568
:1057F000801F1BD3B1F5001F0CD349085FEA3000AE
:105800004FEA3C0C04F101044FEA445212F5800FB8
:1058100080F09A80BCF1004F08BF5FEA500C50F155
:10582000000041EB045141EA050130BD5FEA4C0C38
:10583000404141EB010111F4801FA4F10104E9D1C1
:1058400091F0000F04BF01460020B1FA81F308BFB8
:105850002033A3F10B03B3F120020CDA0C3208DD84
:1058600002F1140CC2F10C0201FA0CF021FA02F15F
:105870000CE002F11402D8BFC2F1200C01FA02F1CF
:1058800020FA0CFCDCBF41EA0C019040E41AA2BFF4
:1058900001EB0451294330BD6FEA04041F3C1CDABC
:1058A0000C340EDC04F11404C4F1200220FA04F0DC
:1058B00001FA02F340EA030021FA04F345EA030186
:1058C00030BDC4F10C04C4F1200220FA02F001FA48
:1058D00004F340EA0300294630BD21FA04F02946CA
:1058E00030BD94F0000F83F4801306BF81F4801163
:1058F0000134013D4EE77FEA645C18BF7FEA655CD6
:1059000029D094EA050F08BF90EA020F05D054EAA7
:10591000000C04BF1946104630BD91EA030F1EBFAC
:105920000021002030BD5FEA545C05D140004941B0
:1059300028BF41F0004130BD14F580043CBF01F5A3
:10594000801130BD01F0004545F0FE4141F4700189
:105950004FF0000030BD7FEA645C1ABF1946104664
:105960007FEA655C1CBF0B46024650EA013406BF65
:1059700052EA033591EA030F41F4002130BD00BF24
:1059800090F0000F04BF0021704730B54FF48064E1
:1059900004F132044FF000054FF0000150E700BF62
:1059A00090F0000F04BF0021704730B54FF48064C1
:1059B00004F1320410F0004548BF40424FF00001AE
:1059C0003EE700BF42004FEAE2014FEA31014FEAF1
:1059D00002701FBF12F07F4393F07F4F81F0605140
:1059E000704732F07F4208BF704793F07F4F04BF8B
:1059F00041F40021704730B54FF4607401F0004568
:105A000021F000411CE700BF50EA010208BF7047C7
:105A100030B54FF000050AE050EA010208BF7047B8
:105A200030B511F0004502D5404261EB41014FF421
:105A3000806404F132045FEA915C3FF4D8AE4FF029
:105A400003025FEADC0C18BF03325FEADC0C18BF0C
:105A5000033202EBDC02C2F1200300FA03FC20FA5D
:105A600002F001FA03FE40EA0E0021FA02F11444AA
:105A7000BDE600BF70B54FF0FF0C4CF4E06C1CEAC3
:105A800011541DBF1CEA135594EA0C0F95EA0C0F34
:105A900000F0DEF82C4481EA030621EA4C5123EAA7
:105AA0004C5350EA013518BF52EA033541F48011D6
:105AB00043F4801338D0A0FB02CE4FF00005E1FB89
:105AC00002E506F00042E0FB03E54FF00006E1FBD3
:105AD00003569CF0000F18BF4EF0010EA4F1FF0416
